:100000000C9462000C948A000C948A000C948A0070
:100010000C948A000C948A000C948A000C948A0038
:100020000C948A000C948A000C948A000C948A0028
:100030000C948A000C948A000C948A000C948A0018
:100040000C9450030C948A000C948A000C948A003F
:100050000C948A000C948A000C948A000C948A00F8
:100060000C948A000C948A000000000024002700F1
:100070002A0000000000250028002B0000000008D6
:10008000000201000003040700000000000000005F
:1000900000000000230026002900040404040404D6
:1000A0000404020202020202030303030303010227
:1000B00004081020408001020408102001020408F6
:1000C0001020970511241FBECFEFD8E0DEBFCDBFB3
:1000D00011E0A0E0B1E0ECE5FCE002C005900D927B
:1000E000AE33B107D9F721E0AEE3B1E001C01D9214
:1000F000A936B207E1F710E0C2E6D0E004C02197CC
:10010000FE010E941706C136D107C9F70E94DF031E
:100110000C942C060C940000AF92BF92CF92DF9209
:10012000EF92FF920F931F93CF93DF936C017B01AC
:100130008B01040F151FEB015E01AE18BF08C0173D
:10014000D10759F06991D601ED91FC910190F081B0
:10015000E02DC6010995892B79F7C501DF91CF9173
:100160001F910F91FF90EF90DF90CF90BF90AF90D5
:100170000895833081F028F4813099F08230A9F01D
:1001800008958730A9F08830C9F08430B1F48091A7
:1001900080008F7D03C0809180008F7780938000E6
:1001A000089584B58F7784BD089584B58F7DFBCF86
:1001B0008091B0008F778093B00008958091B00057
:1001C0008F7DF9CFCF93DF93282F30E0F901E458EA
:1001D000FF4F8491F901E255FF4FD491F901E656A2
:1001E000FF4FC491CC23A1F081110E94B900EC2FE4
:1001F000F0E0EE0FFF1FE057FF4FA591B491EC9197
:10020000ED2381E090E009F480E0DF91CF91089543
:1002100080E090E0FACF1F93CF93DF93282F30E058
:10022000F901E458FF4F8491F901E255FF4FD49151
:10023000F901E656FF4FC491CC23A9F0162F811186
:100240000E94B900EC2FF0E0EE0FFF1FEE58FF4FB9
:10025000A591B4918FB7F894EC91111108C0D09585
:10026000DE23DC938FBFDF91CF911F910895DE2BAA
:10027000F8CFCF93DF9390E0FC01E255FF4F24913C
:1002800086569F4FFC0184918823C9F090E0880F27
:10029000991FFC01E859FF4FA591B491FC01EE585C
:1002A000FF4FC591D49161110DC09FB7F8948C9107
:1002B000209582238C938881282328839FBFDF91F8
:1002C000CF910895623051F49FB7F8943C91822FFA
:1002D000809583238C93E8812E2BEFCF8FB7F894F2
:1002E000EC912E2B2C938FBFEACF3FB7F8948091DF
:1002F000430190914401A0914501B091460126B57A
:10030000A89B05C02F3F19F00196A11DB11D3FBF4D
:10031000BA2FA92F982F8827BC01CD01620F711D1C
:10032000811D911D42E0660F771F881F991F4A9516
:10033000D1F70895089590E080E008958F929F92FC
:10034000AF92BF920F931F93CF93DF93CDB7DEB7DA
:10035000A1970FB6F894DEBF0FBECDBF19A24230F1
:1003600008F44AE08E010F5D1F4F842E912CB12CB2
:10037000A12CA50194010E94CB05E62FB901CA0169
:10038000EA3044F5E05DD801EE938D01232B242B58
:10039000252B79F790E080E0109769F0FD0101903E
:1003A0000020E9F73197AF014A1B5B0BBD0181E5E6
:1003B00091E00E948C00A1960FB6F894DEBF0FBEAC
:1003C000CDBFDF91CF911F910F91BF90AF909F90C4
:1003D0008F900895E95CD7CFFC0101900020E9F7E8
:1003E0003197AF01481B590BBC0181E591E00C949A
:1003F0008C00CF93DF93EC0160E08E810E940B01B3
:1004000061E08E810E940B0160E08E810E940B01F1
:100410008BE891E00197F1F7DF91CF910895CF92AA
:10042000DF92EF92FF920F931F93CF93DF936C01B4
:100430007C0187E0E80EF11CD0E0C0E0062F10E060
:10044000B8010C2E02C0759567950A94E2F76170A9
:10045000F70181917F010E940B012196C430D105E3
:1004600079F7C601DF91CF911F910F91FF90EF9027
:10047000DF90CF900C94F901CF92DF92EF92FF9230
:100480000F931F93CF93DF93EC01F62E642F8C8193
:100490000E940B018D818F3F19F060E00E940B01DB
:1004A0000F2D10E08F8584FF25C06E0187E0C80EF8
:1004B000D11CF12CE12CB8010E2C02C0759567956A
:1004C0000A94E2F76170F60181916F010E940B01BD
:1004D000FFEFEF1AFF0A88E0E816F10461F7CE019A
:1004E000DF91CF911F910F91FF90EF90DF90CF9010
:1004F0000C94F901B80184E0759567958A95E1F748
:10050000CE010E940F026F2DCE01DF91CF911F917E
:100510000F91FF90EF90DF90CF900C940F0240E08E
:10052000682F81E591E00C943C02CF93DF938230F9
:1005300029F4909160019860909360018093640128
:100540001092650180E48093660180E180936701E9
:1005500080E58093680161E0809155010E94390136
:10056000809156018F3F19F061E00E94390161E0EE
:10057000809157010E943901C1E5D1E09E012155CA
:1005800031408091600184FD0BC084E090E02196B1
:100590002817390744F461E08E810E943901EECFBB
:1005A00088E090E0F4CF8BE39DE00197F1F760E005
:1005B000809155010E940B0160E0809157010E94DB
:1005C0000B01809156018F3F19F060E00E940B01F2
:1005D0008091600184FD39C063E081E591E00E9473
:1005E0000F02CBE4D6E4CE010197F1F763E081E599
:1005F00091E00E940F022197F1F763E081E591E01D
:100600000E940F0283E592E00197F1F762E081E535
:1006100091E00E940F028091600180620E948F022F
:1006200084E0809361018CE00E948F0281E00E944F
:100630008F028BE39FE10197F1F782E080936201E3
:1006400086E0DF91CF910C948F0280620E948F022E
:100650008BE496E40197F1F78091600180620E943B
:100660008F0283E592E00197F1F78091600180624B
:100670000E948F02D0CF90916401691710F06FEF44
:10068000690FE62FF0E0EF5AFE4F9489890F8068DA
:100690000C948F0241E00E943C0281E090E00895BA
:1006A0001F920F920FB60F9211242F933F938F93A7
:1006B0009F93AF93BF9380913F0190914001A09190
:1006C0004101B091420130913E0123E0230F2D37CB
:1006D00058F50196A11DB11D20933E0180933F0165
:1006E00090934001A0934101B09342018091430156
:1006F00090914401A0914501B09146010196A11D40
:10070000B11D8093430190934401A0934501B093A0
:100710004601BF91AF919F918F913F912F910F9083
:100720000FBE0F901F90189526E8230F0296A11D6B
:10073000B11DD2CFCF92DF92EF92FF920F931F9312
:10074000E82FF92F05C0015011092109310961F184
:10075000908196239417B9F305C00150110921091E
:10076000310911F1908196239413F7CFC12CD12C2C
:10077000E12CF12C0AC08FEFC81AD80AE80AF80A4F
:100780000C151D052E053F0579F080818623841701
:1007900091F36C2D7D2D8E2D9F2D1F910F91FF902C
:1007A000EF90DF90CF90089560E070E080E090E0FF
:1007B0001F910F91FF90EF90DF90CF900895789464
:1007C00084B5826084BD84B5816084BD85B5826056
:1007D00085BD85B5816085BD80916E008160809307
:1007E0006E00109281008091810082608093810070
:1007F0008091810081608093810080918000816080
:10080000809380008091B10084608093B1008091DA
:10081000B00081608093B00080917A008460809302
:100820007A0080917A00826080937A0080917A00C9
:10083000816080937A0080917A00806880937A004A
:100840001092C10082E00E9495028CE091E00E942B
:10085000EC0161E080E00E943B0389E191E00E94AD
:10086000EC0161E088E00E94390160E089E00E94CB
:10087000390162E08AE00E94390162E08BE00E9467
:10088000390161E08CE00E94390190E080E00E9433
:10089000B50590E090934C0180934B018739910509
:1008A00034F086E990E090934C0180934B0123E271
:1008B000222E312C34E9432E512C612C712CC0E0B6
:1008C000D0E060E083E00E940B0183E090E00197BC
:1008D000F1F761E088E00E940B01C1010197F1F797
:1008E00060E088E00E940B01E7EBF0E06491E3EA4E
:1008F000F0E08491E82FF0E0EE0FFF1FE057FF4F8C
:100900008591949100E412E42FE030E0462F0E949C
:100910009A03611571058105910529F06F5F7F4F7D
:100920008F4F9F4F9F70A30192010E94ED0520936E
:100930004D0130934E0140934F0150935001C090B0
:100940004B01D0904C010D2C000CEE08FF08D70194
:10095000C601821B930BA40BB50B9C01AD01A4E651
:10096000B0E00E940C06A70196010E94ED057901F6
:1009700030934A012093490160E08CE00E943B03E0
:10098000F7FE04C010924A0110924901C09049013B
:10099000D0904A010D2C000CEE08FF084AE0C70178
:1009A000B601F7FE0EC041E06DE281E591E00E94E4
:1009B0003C0266277727CB016C197D098E099F09B8
:1009C0004AE00E949E0189E291E00E94EC01E090E1
:1009D0004901F0904A018BE00E94E20021E030E002
:1009E000AEE1EA16F10414F030E020E08223932314
:1009F000892B09F491C081E080934801109148014E
:100A000061E061278CE00E940B0161E085E00E94BB
:100A10003B038EE291E0111102C082E391E00E945B
:100A2000EC0161E089E00E943B038BE00E94E20060
:100A3000892B09F079C082E291E00E94EC018AE002
:100A40000E94E200E090470121E0E226892B09F0B4
:100A500020E0E222F12C8BE00E94E2008E219F2117
:100A6000892B81F081E08093470190914D01692F9E
:100A700080914E0190934B0180934C0190E080E077
:100A80000E94BD058AE00E94E2007C01D0904701EF
:100A900011E0D1268BE00E94E2008E299F29892B4C
:100AA00049F4DD2039F010934701809148018127F6
:100AB000809348018AE00E94E200892B11F0109295
:100AC00047010E9475014B015C0184EFC82EDD24B3
:100AD000D394E12CF12C0E947501681979098A09D7
:100AE0009B09683E734081059105A8F3E1E0CE1AA9
:100AF000D108E108F108F8EE8F0EF3E09F1EA11C6B
:100B0000B11CC114D104E104F10429F7209709F4C0
:100B1000D8CE0E940000D5CEB4E6EB16F1040CF45A
:100B20006DCF109248016ACF86E391E086CFE1E570
:100B3000F1E01382128284E091E09183808382E06D
:100B400084838FEF858383E0868384E0878385E0D9
:100B5000808786E0818787E08287138614861586E2
:100B60001686178681E00C949502F999FECF92BD06
:100B700081BDF89A992780B50895262FF999FECF5F
:100B80001FBA92BD81BD20BD0FB6F894FA9AF99AAA
:100B90000FBE01960895A1E21A2EAA1BBB1BFD01F0
:100BA0000DC0AA1FBB1FEE1FFF1FA217B307E4074C
:100BB000F50720F0A21BB30BE40BF50B661F771FA4
:100BC000881F991F1A9469F7609570958095909584
:100BD0009B01AC01BD01CF010895052E97FB1EF4CA
:100BE00000940E94040657FD07D00E94CB0507FC25
:100BF00003D04EF40C940406509540953095219501
:100C00003F4F4F4F5F4F0895909580957095619538
:100C10007F4F8F4F9F4F08950E941D06A59F900DF7
:100C2000B49F900DA49F800D911D11240895EE0F87
:100C3000FF1F0590F491E02D0994A29FB001B39F8E
:100C4000C001A39F700D811D1124911DB29F700DD5
:0C0C5000811D1124911D0895F894FFCF20
:100C5C00000000004A038C009B019A015741544547
:100C6C0052204C4556454C3A0050554D503A4F4643
:100C7C0046204D414E55414C0025202020004F4E22
:0E0C8C0020004F4646004155544F20202000C6
:00000001FF
